:020000040002F8
:1060000088110120C1630200C9630200CB63020052
:10601000CD630200CF630200D163020000000000E4
:10602000000000000000000000000000D363020038
:10603000D563020000000000D7630200D9630200AC
:10604000B7680200DB630200056B0200DB6302003D
:10605000E9680200DB63020095650200DB63020071
:10606000DB630200DB630200DB630200DB63020030
:10607000DB630200DB630200DB630200DB63020020
:10608000DB630200C5680200DB630200DB63020021
:10609000F9680200DB630200FD680200016902008A
:1060A000DB630200DB630200DB630200DB630200F0
:1060B000DB630200DB630200000000000000000060
:1060C000DB630200DB630200DB630200DB630200D0
:1060D000DB63020049670200DB630200116B020010
:1060E000DB630200DB630200DB63020000000000F0
:1060F00000000000DB63020000000000DB63020020
:10610000000000000000000000000000000000008F
:10611000000000000000000000000000000000007F
:10612000000000000000000000000000000000006F
:10613000000000000000000000000000000000005F
:10614000000000000000000000000000000000004F
:10615000000000000000000000000000000000003F
:10616000000000000000000000000000000000002F
:10617000000000000000000000000000000000001F
:10618000000000000000000000000000000000000F
:1061900000000000000000000000000000000000FF
:1061A00000000000000000000000000000000000EF
:1061B00000000000000000000000000000000000DF
:1061C00000000000000000000000000000000000CF
:1061D00000000000000000000000000000000000BF
:1061E00000000000000000000000000000000000AF
:1061F000000000000000000000000000000000009F
:10620000DFF80CD000F088F90048004739C90200D7
:106210008811012030B450E8012F93B2C48923447F
:106220008489A34228BF1B1B0489A34202BFBFF37A
:106230002F8F002007E0C3EA020340E80134002C5E
:10624000E9D14FF001000A6030BC704750E8012FDF
:10625000C2EA024240E801210029F7D1704730B478
:1062600050E8022F1FFAA2F3C488A34202BFBFF373
:106270002F8F00200DE0C48923448489A34228BFC6
:106280001B1BC2EA034340E80234002CE8D14FF064
:1062900001000A6030BC704750E8022FC2EA224277
:1062A00040E802210029F7D17047034653E8022F46
:1062B000D988B2EB324F4FF0000017BF92B241EADB
:1062C000014142EA014104E05A68B2EB324F08BF93
:1062D000012043E80212002AE8D1704730B4044696
:1062E00054E8000F0D4644E80053002BF8D1156028
:1062F00030BC704730B4044654E8000F40EA010552
:1063000044E80053002BF7D1156030BC704730B41F
:10631000044654E8000F00EA010544E80053002B4E
:10632000F7D1156030BC704730B4044654E8000F14
:1063300080EA010544E80053002BF7D1156030BC1A
:10634000704730B4044654E8000F00EB010544E800
:106350000053002BF7D1156030BC704730B40446B1
:1063600054E8000FA0EB010544E80053002BF7D1DF
:10637000156030BC704770B404464FF0000054E81C
:10638000006F0D68AE4207BF44E80023012044E8D7
:1063900000630E60002B1CBF0020F0E770BC70474C
:1063A00030B4044654E8000F88422CBF451A054615
:1063B00044E80053002BF5D1156030BC7047000055
:1063C0000648804706480047FEE7FEE7FEE7FEE78F
:1063D000FEE7FEE7FEE7FEE7FEE7FEE729690200CB
:1063E000016202002DE9F05F0546002092469B46BF
:1063F00088460646814640241BE0284641464746DB
:10640000224600F079F853465A46C01A914110D3FB
:1064100011461846224600F016F82D1A67EB0108BF
:106420004F4622460120002100F00DF817EB00092D
:106430004E41201EA4F10104DFDC484631462A46C5
:106440004346BDE8F09F202A04DB203A00FA02F11F
:10645000002070479140C2F1200320FA03F3194352
:106460009040704700487047AC4F030010B5431A86
:10647000934209D28318881803E010F8011D03F82D
:10648000011D521EF9D210BD40EA01039B0703D043
:1064900009E008C9121F08C0042AFAD203E011F863
:1064A000013B00F8013B521EF9D210BDD2B201E00F
:1064B00000F8012B491EFBD270470022F6E710B509
:1064C00013460A4604461946FFF7F0FF204610BD62
:1064D000421C10F8011B0029FBD1801A704730B50F
:1064E00004460020034600E05B1C934203D2E05CBC
:1064F000CD5C401BF8D030BD202A04DB203A21FAC5
:1065000002F00021704721FA02F3D040C2F12002CC
:106510009140084319467047064C074D06E0E06875
:1065200040F0010394E8070098471034AC42F6D3DA
:10653000FFF76AFE085803002858030070B58C184E
:1065400010F8015B15F0070301D110F8013B2A1187
:1065500006D110F8012B03E010F8016B01F8016B74
:106560005B1EF9D12B0705D40023521E0DD401F870
:10657000013BFAE710F8013BCB1A921C03E013F839
:10658000015B01F8015B521EF9D5A142D8D300206E
:1065900070BD00002DE9F04F00268DB0DFF8A0811E
:1065A000B14604964FF48075012437460596284677
:1065B00008F0F6F938B1D8F80403204203D0284691
:1065C00008F0E4F926432D1D64007F1CADB2082FAE
:1065D000EDD34FF4BE74204608F0E2F948B12046EE
:1065E00008F0D4F946F0004604AA0221002008F081
:1065F000B7F9544C16F0FF0F15D00127002537428C
:106600000DD008EB8501D1F81005D1F81015C0F3B5
:10661000052054F82520C1F3014102B190477F00C5
:106620006D1C082DEBD3002E7EDA0020CDF82890CB
:10663000411E0DF1100B07AACDF82C9042F8201046
:10664000401C91460228F9D300252E46A11911F8C5
:10665000607F91F9000027F0C008401C40D007A9D6
:10666000404606F0E8FC40B34FEA971A404603F074
:10667000DBFC54F820701FB1BAF1030F03D006E021
:10668000BAF1030F2CD10AA9404606F0DCFC02A89F
:10669000CDF8088008F0F0F8029900EB8100D0F8FE
:1066A000000704A9C0F301400290404606F0C3FC75
:1066B0000028029802D0022802D011E003280FD14E
:1066C000BAF1030F08D10298022833D002214046C4
:1066D00008F0A1F86D1CEDB217B151464046B8471D
:1066E000761C042EB2D3002D21D001AA0221002055
:1066F00008F036F900205A460DF1040152F82060E6
:1067000051F82030B34217D000200AAE4FEA0903F7
:1067100051F8207042F8207056F8207043F820702D
:10672000401C0228F4D300E001E0002D8CD10DB014
:10673000BDE8F08F0321CAE7401C0228DED3F6E74C
:1067400000600040E8E400202DE9FC413F4E4FF49A
:106750008A752946304608F02BF93D4C70B1294620
:10676000304608F02AF9607940F008016171880725
:1067700004D5C80602D541F0200060714FF482753F
:106780002946304608F014F970B12946304608F021
:1067900014F9607940F004016171C80704D0C8069B
:1067A00002D541F0200060714FF4847739463046BD
:1067B00008F0FEF80025B0B13946304608F0FDF883
:1067C0000420C6F80803C6F80055214800212268B5
:1067D000103090471E480021226808309047012061
:1067E0002071BDE8FC81607981074FEAC07103D553
:1067F00019B1010705D4F4E709B9010703D48107EA
:10680000EFD44107EDD520F00C00607181060BD567
:1068100020F0200040F010006071226802B00121D9
:10682000BDE8F04100201047D4E90412CDE9001280
:10683000D4E90212A560E560C4E9041240F010003A
:1068400060712268012168469047CAE70050024003
:1068500010E8002000F01F02012191404009800053
:1068600000F1E020C0F88012704700F01F02012103
:1068700091404009800000F1E020C0F8001170470D
:1068800000F01F02012191404009800000F1E0204A
:10689000C0F8001270474907090E002806DA00F018
:1068A0000F0000F1E02080F8141D704700F1E02097
:1068B00080F80014704710B509F056FBBDE8104091
:1068C00009F09CB807480021C0F84011C0F84411F5
:1068D000C0F84811C0F84C11C0F80011C0F80411FC
:1068E0000CF0C4BC0010014002494FF040200CF0F5
:1068F000AFBD0000DCE700200CF006BC08F0E4BEF1
:10690000074810B5D0F80011002907D00021C0F8C1
:10691000001109F0BFFA03490220487010BD0000C1
:1069200000700140E82B002030B54FF0805000226D
:106930008300D0F83011C3F80C21C3F81021624B4A
:106940001A60624B1B68624C2360604B1B1D1B6806
:10695000241D23605D4B08331B68241D23605B4BA3
:106960000C331B68241D2360584B10331B68241DF7
:106970002360564B14331B68241D2360534B18337C
:106980001B68534C20342360504B1C331B68241D60
:1069900023604E4B20331B68241D23604B4B243354
:1069A0001B68241D2360494B28331B68241D23606A
:1069B000464B2C331B68241D2360444B30331B682B
:1069C000434C40342360414B34331B68241D236007
:1069D0003E4B38331B68241D23603C4B3C331B6803
:1069E000241D2360394B40331B68241D2360012480
:1069F000082902D1D0F8343113B1082904D006E0B7
:106A0000354B3449196005E0D0F8343113B1082909
:106A100004D006E0314BFB21196005E0D0F8343199
:106A200013B1082908D00EE090F858322C480168BC
:106A300063F30301016002E0D0F834311BB9294946
:106A40004FF40070086028480168C90702D06FF051
:106A5000010101602548016841F470010160BFF344
:106A60004F8FBFF36F8F4FF01021D1F80002002835
:106A700003DBD1F80402002822DA1D4B1C601D48FC
:106A80000468002CFCD01224C1F800420568002DD7
:106A9000FCD0C1F8044201680029FCD01A600168EA
:106AA0000029FCD0BFF34F8F10487C380168124A90
:106AB00001F4E06111430160BFF34F8F00BFFDE7B8
:106AC0000F490E48086030BD38050040040400102E
:106AD00020C50040488103008C56004018F5004056
:106AE000E40E0040409602400004004088ED00E0C3
:106AF00004E5014000E401400400FA050090D003E1
:106B0000B82E00200148006800470000E42C002057
:106B10002DE9F05F5448D0F8045300242E464FF07E
:106B2000010913E096FAA6F0B0FA80F7B80000F574
:106B30008070804608F0E4FE28B1404608F0E8FE88
:106B400009FA07F0044309FA07F08643002EE9D159
:106B500006F0DCFF002869D0444AD078F0BBA002E0
:106B600064D5434940F2A978C1F80080081D036844
:106B700013F0FF0C02D0036803EA0C0C40F2AA7A6F
:106B8000C1F800A0036813F0FF0301D0066833408A
:106B900040F2AB7BC1F800B0066816F0FF0601D0EA
:106BA00007683E4040F2AC770F60076817EA0C07B1
:106BB00009D0D2F810C04CEA070CC2F810C0C1F8D6
:106BC00000800760076840F2AD770F6007681F40DC
:106BD00009D0136943EA0743136100E026E0C1F8D6
:106BE00000A00760036840F2AE730B600368334097
:106BF0000BD0DE0701D044F40004DE0601D544F0DA
:106C00000104C1F800B003600068106930F00111A0
:106C100002D005F080710C4310F0011F06D0690509
:106C200004D520F0011044F480641061C4F3C05610
:106C300024F400044F46DFF83C8009E094FAA4F005
:106C4000B0FA80F558F82500804707FA05F084432C
:106C5000002CF3D10DF0A2F8002E03D0BDE8F05FB8
:106C600003F0DABFBDE8F09F00700240EC2C00207A
:106C700000780240384A0300C11700EBD161074B8E
:106C80004A1153F8222021F01F01411A01208840A7
:106C9000024201D0012070470020704700E100E06F
:106CA00002E008C8121F08C1002AFAD170477047D5
:106CB000002001E001C1121F002AFBD17047000033
:106CC0000121202803DA81400548014003E04028E3
:106CD00002DA2038814009B1012070470020704756
:106CE000FC06FFBD10B560B159B102780B785208AF
:106CF000B2EB530F05D10622401C491CFFF7EFFBF6
:106D000008B1002010BD012010BD800701D0002077
:106D1000704701207047C3688B4206D81144006950
:106D2000491E814201D8012070470020704710B5EC
:106D300001220221002002F087FF08B1072810D1AC
:106D400007220221012002F07FFF08B1072808D1A5
:106D500000210A22084602F077FF08B1072800D177
:106D6000002010BD10B550B10A480321008801EB86
:106D7000004009A108F01EF80AF084FC03E003219A
:106D8000094802F011F8002803D0BDE8104000F0D7
:106D9000CBB810BD182F0020457261736520626F5B
:106DA0006E647321000000003830002070B58CB094
:106DB00015460E4600236C46C3F10F01415CE154B9
:106DC0005B1C102BF8D30D2104F11000FFF775FBAD
:106DD0000020C0F10F02315C2244401C11740328D2
:106DE000F7D3684646DF0020C0F10F01214491F837
:106DF00020102954401C0328F6D30CB070BD02208B
:106E000002F024BE0149097902F022BA5C2C00206C
:106E100070B50024064D06E06868012110F83400C2
:106E200008F046FE641C28788442F5D3002070BD2B
:106E3000282D0020F8B515460C460646052A01D235
:106E40000720F8BD08F02CFF18B908F0EFFE002865
:106E5000F7D1124900224E600C708D60C1E9042206
:106E6000C1E906220E4D0DE006EBC4002968009131
:106E700081788DF8011000780A4A694608F064FEAE
:106E80000028DED1641EE4B2EED2BDE8F84004482A
:106E90000021054A001D00F053B80000282D0020F5
:106EA000004B030081B80200BDA5020072B608F0D5
:106EB00037F800BF07F06EFE0028FBD1104C01210F
:106EC000208801EB00400FA107F074FF1048006814
:106ED000C00700D000BE2088022101EB00400DA1B8
:106EE00007F068FFBFF34F8F0948E43801680D4A87
:106EF00001F4E06111430160BFF34F8F00BFFDE774
:106F0000182F0020466174616C206572726F7200E8
:106F1000F0ED00E053797374656D207265736574EC
:106F2000000000000400FA050EB500210091CDE933
:106F300001106A4644F20100FFF7B8FF0EBD0000E1
:106F4000074B9B7823B12AB120B10068037C1BB1A9
:106F50000820704707207047417442610020704745
:106F600048E8002070B50AF0E9FE104800240B2123
:106F7000047044700E4D817014206C602C706C7025
:106F8000FFF768FC07211420FFF785FC1420FFF7AA
:106F90006CFC0848046007211120FFF77CFC0548C1
:106FA000001F0068A860002070BD000048E80020B5
:106FB000482D0020081501402DE9FC47DFF87890A6
:106FC00099F8023073B368B3052902D20720BDE8EF
:106FD000FC87436933B3437C012B25D0002704464B
:106FE0000025884616468DF80050684600F096FD4C
:106FF00001A80DF0F1F8C8B1012101700F494460FA
:107000000968C0E90218C0E904769DF8040089F80F
:1070100001009DF8000000F0A5FD1420FFF730FCF2
:107020002846D4E70820D2E70F46D8E704259DF884
:10703000000000F097FDF3E748E800200415014048
:107040000649897839B130B1416921B10021017413
:1070500002210CF0E7B808207047000048E8002043
:1070600070B505460548C46805E02946204603F08A
:107070004FF820680468002CF7D170BD502E002016
:1070800070B50948C4680CE0267A002505E0294659
:10709000204600F0FFFB6D1CEDB2B542F7D320682F
:1070A0000468002CF0D170BD502E002070B50A4845
:1070B000C4680DE0267A002506E000222946204615
:1070C00000F026FC6D1CEDB2B542F6D320680468D2
:1070D000002CEFD170BD0000502E002070B5084983
:1070E00005460620CC6807E02946204603F010F844
:1070F000062803D121680C68002CF5D170BD000072
:10710000502E002010B503F042FCBDE8104006F000
:10711000C3BC3EB514460D4603F039FC0021009572
:10712000CDE90141694600F079FA3EBD3EB514460D
:107130000D4603F02CFC00210095CDE90141694684
:1071400000F06CFA3EBD0000F8B5044600250FE0E3
:10715000002705E0007800F04FFA08B11120F8BDD3
:107160003946781CC7B2304600F09CF80028F1D1AF
:107170002946681CC5B2204600F0A6F80600E7D1F3
:1071800000250DE0002703E00078214600F039FAE1
:107190003946781CC7B2304600F084F80028F3D195
:1071A0002946681CC5B2204600F08EF80600E9D1D9
:1071B000074800E0086801680029FBD10460054821
:1071C0006946406900906068026820469047F8BDB3
:1071D0005C2E0020004E03002DE9F04F87B04FF0E9
:1071E00000081D46934689460446DDF840A0464601
:1071F000CDF80C8000E0761C60680123002247680F
:10720000214603A8B8470028F5D140468DF80080F4
:107210000027B84601903BE0606801236A46D0F839
:1072200004C0214601A8E0476068012305AAD0F800
:1072300004C0214601A8E0479DF8141049451AD121
:10724000D84514D19DF80000CAF8000005F8010BDC
:107250006A1C85F8009060689DF8003021464568FA
:1072600001A89B1EA847002007B0BDE8F08F08F1D9
:10727000010000F0FF0860689DF800300022D0F89F
:1072800004C0214601A89B1EE0479DF8000007446A
:10729000B742C1D30520E7E70148C0687047000046
:1072A000502E002042788A4201D800207047827810
:1072B00010440844704742788A4201D80020704741
:1072C0008278104408447047027A8A4201D800202C
:1072D000704701EB4101093008447047027A8A4245
:1072E00001D80020704701EB410109300844704784
:1072F00002484078002800D001207047502E00201E
:1073000070B50D460978062401260F293DD2DFE825
:1073100001F03C080C0E3C1A2B3C3C3C3C0C1E2063
:10732000290003200CF096FC2FE000242DE02848D3
:1073300005F0FAFD0028F8D026480660BFF36F8FED
:10734000BFF34F8FF1E700F065F804461DE0002021
:1073500005E02148006810F0010F03D002200CF076
:1073600079FCE2E70120FAE7E87803280DD0184914
:10737000091D0A6832B100230B6049689047040078
:1073800005D000E00E2406F0E3FC204670BD0CF0B2
:1073900059FC28B1A8780028F7D106F09CFCF4E746
:1073A0000E480078082810D10C48001D007800070E
:1073B0000BD10A480830007810F0F00F05D10748CB
:1073C0000C30007810F0F00FDFD006F081FCDCE725
:1073D000702E00205C70024038040040E00F00F086
:1073E000024A0146D2E9000210470000DCF000200A
:1073F00070B50C46054606F065FCA84201D0102089
:1074000070BD0348D4E90012C0E90212002070BD2B
:107410006C2E00207FB5054605208DF8000006245F
:107420000DF1010006F06CFC0CF00CFC2949002069
:1074300008609DF8010010F01F0006D001280FD051
:10744000022826D0032833D106E0694628460BF0EF
:10745000F9F8044606282AD16846FFF73FFE25E0E2
:107460009DF8050003A900F031FA050008D06A462E
:107470009DF80C1000F00AFA0446062802D016E027
:10748000102415E06A469DF80C1028460BF018FAF7
:107490000CE09DF80500010705D0694600F062F890
:1074A0000446062803D168460BF056F9044624B179
:1074B00006F04EFC04B0204670BD0CF0C3FB30B1AA
:1074C00006F000FC0028F5D106F005FCF2E706F016
:1074D000FFFBEFE7742E00207FB5C08814460E46F0
:1074E000A04201D2054600E01546844207D2802022
:1074F00006F014FAB4FBF0F100FB114080B100205B
:107500000096CDE9015000208DF80C0003A800F092
:1075100005FB6946802000F081F8040002D006E0F7
:107520000120EDE705498020FFF762FF04469DF842
:107530000C0000F017FB04B0204670BD404E030065
:1075400008B14021016001487047000030F100207F
:1075500001480078704700006C2E002006F076B8D5
:1075600006F090B810B50C46010600F00F02092A8B
:1075700009D200F00BF8006828B141680A6821467A
:10758000BDE810401047102010BD0000010600F0BB
:107590000F0001D5034901E00249483101EBC00069
:1075A0007047000094F0002006F008B910B50446BA
:1075B00000F00F00082805D2204606F021F92046E9
:1075C00006F0DCF92046BDE8104006F027B90000BF
:1075D00070B50C46054606F063F918B10548007809
:1075E000022801D0082070BD21462846BDE8704021
:1075F00006F058B9502E002010B5FFF7C7FF0068FD
:1076000010BD10B50C46FFF7C1FF04601CB16168E6
:107610000968416010BD0021FBE7000070B50C4611
:10762000054606F03DF918B105480078022801D05A
:10763000082070BD21462846BDE8704006F0C4B958
:10764000502E002038B50446007888B10C4D6946AC
:10765000E86905F0E8FB002809D021680160694667
:10766000E86905F001FC014620460CF087FD38BDB5
:10767000002120460CF082FD204600F003F838BDC2
:10768000004E030070B501786B4C054609296FD098
:1076900007DC77D2DFE801F067779E808AA7AE76B5
:1076A000C30065488129007817D00DDC0A2971D004
:1076B0000F2970D0802965D1052803D006283CD039
:1076C00007285FD1022081E082291BD0832936D090
:1076D000842957D103283AD03FE05848FFF780FE6D
:1076E0005648FFF7BDFC0D200CF056FD206910B97F
:1076F0005348007A00B1012006F02EFBFFF7C0FCD2
:10770000012063E0FFF7BCFC06F052FB00200BF009
:10771000ADFC4A48401CFFF7A3FC4848401CFFF75B
:107720005FFE0E200CF038FD207800F0DDF9002817
:1077300028D0BDE8704005F0CDBD082046E0032804
:1077400020D106F053FB00281CD004203EE006F0B8
:107750004DFB10B104200BF089FC06F0D5FB00288E
:1077600010D0062032E000200CF016FD246907E05E
:1077700057E007E02946204602F0CAFC206844682A
:10778000002CF7D170BDFFF77BFC02200BF06EFCE4
:10779000012005E047E02BE005200BF067FC03200B
:1077A0000CF0FAFC2846FFF71BFE3FE003200CF02C
:1077B000F3FC2248801CFFF713FE2048801CFFF7D3
:1077C0004FFC207806287FF47DAF0720BDE870408D
:1077D0000BF04CBC03200BF049FC02200CF0DCFC4D
:1077E0002846FFF73DFC2846BDE87040FFF7F8BD8E
:1077F0000F2019E0A878FFF7C9FED0E90023294639
:10780000104698470028BDD0A8780107BAD000F0EC
:107810000F010829B6D2BDE8704006F08BB80820E9
:1078200002E0092000E00A200CF0B6FC2846BDE882
:107830007040FFF715BC0000502E0020114E0300D1
:1078400024F10020FFF7FEBE70B50B4C0B4DA06875
:1078500030B9211DE86905F0FCFAA060002809D0C4
:10786000FFF710FF0449E869091D05F0E7FA002059
:10787000A060012070BD0000502E0020004E0300CB
:107880000148FFF7DFBE0000004E030011464268CA
:107890001368184770B5044640680D46C2680AB1BF
:1078A0002046904720462946FFF70EFD05464678BC
:1078B000002408E021462846FFF7F4FC007805F094
:1078C0007DFF641CE4B2B442F4D370BD2DE9F041F5
:1078D00080460E480E46C56814E02F7A00240DE05D
:1078E00021462846FFF7F0FC0178414504D106B156
:1078F00034702846BDE8F081641CE4B2BC42EFD38A
:1079000028680568002DE8D10020F3E7502E0020FC
:1079100070B50446406815460E4683681BB1204684
:107920009847062803D1204631460DB1072070BD87
:10793000FFF7CAFC05464678002408E021462846A1
:10794000FFF7B0FC0078FFF731FE641CE4B2B442EC
:10795000F4D3002070BD034600205A681269002A43
:1079600001D01846104770472DE9F8432D4C0546C5
:10797000042384222A49E06905F042FA10B1032069
:10798000BDE8F883284806F049F90028F8D12749CE
:107990000870C8600861224848218430FEF78DFDD8
:1079A0001F484821CC30FEF788FD21487DB195E87D
:1079B0000E00143080E80E00002005F00FFD18B115
:1079C000852801D0FFF7B0FA1A4D002611E004F126
:1079D00030010EC9EDE7002703E000782946FFF7E4
:1079E00010FE3946781CC7B24046FFF75BFC002802
:1079F000F3D13146701CC6B22846FFF765FC5FEA3A
:107A00000008E8D1606800906946284602F080FBD3
:107A1000040003D006F06AFA2046B1E70020AFE781
:107A200010F00020004E030045780200502E002088
:107A300010F10020804E030030B1012807D0022849
:107A400008D10548FFF7FEBD03480838FAE70248A9
:107A5000001FF7E770470000284E030010B506F03E
:107A600029F910B106F01CF908B1082010BD04482E
:107A700005F028FD08B1FFF757FA002010BD0000FF
:107A80002C4E0300074803E0016811F0010F07D0F6
:107A90000168C1F340010029F6D00348FFF7D2BDC9
:107AA0007047000038040040054E0300034808B545
:107AB000806800906846FFF7C5FD08BD004E0300D2
:107AC000074918B1052803D300207047086870479C
:107AD000044A105C0028FAD051F8200070470000DA
:107AE000842E0020044F0300092808D2DFE800F0AC
:107AF0000707050707050505050001207047002059
:107B00007047092808D2DFE800F0070705070707D4
:107B100007070500012070470020704730B5EFF3DC
:107B2000108172B60D4A9468012324B103700029B4
:107B300000D162B630BD93604FF0E023D3F880519E
:107B4000074C25401560C3F88041D3F88441546048
:107B50005A17C3F8842100220270E8E754E9002094
:107B6000FC06FFBD0B498A68002A11D000280FD1FE
:107B7000EFF3108072B60B684FF0E022C2F80031CC
:107B80004B68C2F8043100228A60002800D162B636
:107B90007047000054E9002010B5144C00224FF447
:107BA00080312068FFF708FA08B1FFF7BDF900221D
:107BB0004FF400416068FFF7FFF908B1FFF7B4F92F
:107BC000002242F26661A068FFF7F6F908B1FFF7FC
:107BD000ABF900224FF42031E068FFF7EDF90028FF
:107BE00003D0BDE81040FFF79FB910BD1847030050
:107BF0002DE9F05FDFF8F09001460378B9F8000056
:107C00004FF0030808EB0040A3B1012B14D0022B66
:107C100014D0032B66D1354CD1E90165A068284406
:107C2000A060002D5ED04FF4C06A4FF0000BA06939
:107C300048B10FE02EA102E032A100E036A1BDE87C
:107C4000F05F07F0B7B8374805F0A3F9A06190B12D
:107C5000C4F81CB0E069C5F5C061814217D3A169C1
:107C60002A4608443146FEF701FCE0692E442844C8
:107C70000025E0611DE0E068401CE060B9F80010FC
:107C8000E26808EB014028A107F098F820E0C0F571
:107C9000C067A1693A4608443146FEF7E7FBE06950
:107CA000ED1B38443E44E061504505D00020FFF70D
:107CB0003BF9E069504509D10C492248183107F0D9
:107CC000B6FA08B1FFF730F9C4F818B0002DAED1FC
:107CD000A078012528B91B4807F03CFA0C2800D2EF
:107CE000A5706570BDE8F09F182F0020882B00203C
:107CF00055534220706F77657220646574656374B4
:107D00006564000055534220706F7765722072657C
:107D10006D6F7665640000005553422072656164A2
:107D200079000000F05803006D5F726563765F6252
:107D300075666665725F6F76657272756E73202503
:107D4000640000002059030010B5FFF787FE08B15A
:107D5000FFF7EAF8002010BD10B504460C48FFF705
:107D600003FE08B1FFF7E0F809485838FFF7ECF9CF
:107D700008B1FFF7D9F806482C38FFF7E5F908B144
:107D8000FFF7D2F8034920680861002010BD000009
:107D90004C480300D42B00202DE91040FFF754FD80
:107DA0000028FBD110BD70B5054608680C46411C83
:107DB00004D006F0A4FD206806F00FFD6068411CA9
:107DC00002D0002106F0EEFC2968A069C1F8240564
:107DD000607D227D29681043C1F86C05D4E900124A
:107DE0002868C0F81425C0F80C15207D012814D18E
:107DF000A068411C02D0002106F0D4FCE068411CC0
:107E000004D006F07CFDE06806F0E7FCD4E902123D
:107E10002868C0F80825C0F8101570BD70B5054673
:107E200008680C46411C04D006F073FD206806F07B
:107E3000DEFC6068411C02D0002106F0BCFC296811
:107E4000A069C1F82405607D217D2A680843C2F835
:107E50006C05D4E900122868C0F80C15C0F8142588
:107E6000207D012814D1A068411C02D0002106F019
:107E7000A2FCE068411C04D006F04BFDE06806F06F
:107E8000B6FCD4E902122868C0F80825C0F810151D
:107E900070BD04F0ADBC10B50A7800240F2A16D2CC
:107EA000DFE802F01516161615080C15151515162F
:107EB000161616000AF09AFC044609E089780906AD
:107EC00001D5022100E001210CF060F900E0062458
:107ED000204610BD2DE9F05FDFF810A80C7A0546AA
:107EE0008AF8004000684FF00009884616464C4664
:107EF0001F464FF0010BB0F5317F79D053DC40F2D3
:107F00009522A0F29521904273D02DDC40F286217B
:107F1000A0F2862288426DD015DC40F28221A0F2C8
:107F20008222884267D007DC90B3D01D64D001283C
:107F30006DD006287CD185E0012A7AD0022A79D03A
:107F4000032AF7D1B0E0062A75D006DC012A73D0E7
:107F5000042A72D0052AEDD1D2E0072A6ED0082A71
:107F60006DD00E2AE6D12BE1252969D011DC142928
:107F700067D006DC012970D002296FD00B29D9D136
:107F80005CE11D296BD023296AD02429D2D1B8E124
:107F900027E0263909294BD2DFE801F0E9E8E7E6D6
:107FA000E5E44A4AE300A0F2C5203028F3D2DFE836
:107FB00000F0FDFCFBFAF9F8F73F3FF6F5F4F3F2B9
:107FC000F1F03F3F3F3F3F3F3FEF3F3F3FEEEDECA4
:107FD000EBEAE9E83F3FE7E63F3F3FE5E4E3E2E184
:107FE000E0DF09202871002F06D840F27B2075E3DE
:107FF000EEE1F2E063E034E00EB128793070042065
:108000005C462871012F02D84FF41F7066E30EB151
:108010002879305500214046641CFFF75FF9CAF803
:10802000040000782871BC420CD340F2812055E353
:1080300058E323E02DE06EE04CE056E076E080E08F
:108040006DE11BE10EB128793055641C85F8049070
:10805000BC4206D340F2822040E3C9E0D6E02DE1E5
:1080600044E10EB128793055DAF80400641CBC42B2
:108070004078287102D340F283202FE30EB1287993
:108080003055641C85F804B0BC4202D34FF4217013
:1080900024E30EB128793055641C85F804B0BC4245
:1080A00002D340F2852019E30EB128793055641CC3
:1080B00085F80490BC4202D340F286200EE30EB154
:1080C00028793055641C85F80490BC4202D340F2F4
:1080D000872003E30EB1287930550920641C2871EC
:1080E000BC4202D340F28A20F8E20EB12879305522
:1080F0002420641C2871BC4202D340F28B20EDE2A4
:108100000EB128793055641C85F804B0BC4202D306
:108110004FF42370E2E20EB128793055641C85F8E3
:108120000490BC4202D340F28D20D7E20EB12879F0
:108130003055641C85F804B0BC4202D340F28E2056
:10814000CCE20EB128793055D8F81C000188D8F857
:10815000140000880144D8F8180000880844093049
:1081600025E02AE11EE112E106E1F9E0EDE0E1E0BF
:10817000AFE2A3E297E28BE27DE270E264E251E2D9
:1081800045E239E22DE221E215E209E2FDE1F1E109
:10819000DCE1C4E1B6E1A9E19CE18DE181E175E1B9
:1081A00069E15DE151E144E138E12AE11EE1AAF82B
:1081B0000200641C2871BC4202D34FF425708DE28A
:1081C0000EB128793055BAF80200641C000A2871F3
:1081D000BC4202D340F2952080E20EB1287930559E
:1081E000641C85F804B0BC4202D340F2962075E2CC
:1081F0000EB1287930554046641C00F079FA401CD5
:108200002871BC4202D340F2972067E20EB1287970
:108210003055D8F814000168CAF80C105046494689
:10822000CAF8089013E000BFD8F81400BC42806878
:10823000405C287102D34FF428704FE20EB12879C8
:108240003055DAF808105046491CCAF80810C268C0
:10825000641C9142E8D3D8F81C10096801614946B2
:10826000CAF8089014E000BFD8F81C00BC4280682F
:10827000405C287102D340F2A9202FE20EB1287988
:108280003055DAF808105046491C641CCAF808102A
:1082900002699142E8D3D8F818100968416149464B
:1082A000CAF8089014E000BFD8F81800BC428068F3
:1082B000405C287102D340F2B2200FE20EB128795F
:1082C0003055DAF808105046491C641CCAF80810EA
:1082D00042699142E8D341680920C91CCAF80410D8
:1082E0002871BC4202D34FF42E70F7E10EB1287909
:1082F00030550420641C2871BC4202D340F2B920DE
:10830000ECE10EB1287930554046641C00F0F0F9DC
:10831000401C2871BC4202D340F2BA20DEE10EB10B
:1083200028793055641C85F80490BC4202D340F291
:10833000BB20D3E10EB128793055641C85F8049038
:10834000BC4202D34FF42F70C8E10EB128793055EA
:10835000641C85F804B0BC4202D340F2BD20BDE1EC
:108360000EB12879305598F82600641C2871BC425B
:1083700002D340F2BE20B1E10EB128793055641C21
:1083800085F80490BC4202D340F2BF20A6E10EB1B2
:1083900028793055641C85F80490BC4202D34FF410
:1083A00030709BE10EB1287930550920641C28718A
:1083B000BC4202D340F2C32090E10EB1287930557F
:1083C0000420641C2871BC4202D34FF4317085E153
:1083D0000EB1287930554046641C00F089F9401CE4
:1083E0002871BC4202D340F2C52077E10EB1287952
:1083F0003055641C85F804B0BC4202D340F2C6205C
:108400006CE10EB128793055DAF80400641CBC42E6
:108410004078287102D340F2C7205FE10EB128797D
:108420003055641C85F804B0BC4202D34FF432705E
:1084300054E10EB12879305598F82600641C287153
:10844000BC4202D340F2C92048E10EB12879305530
:10845000641C85F80490BC4202D340F2CA203DE17E
:108460000EB128793055641C85F80490BC4202D3C3
:1084700040F2CB2032E10EB1287930550720641C40
:108480002871BC4202D340F2CE2027E10EB12879F8
:1084900030552420641C2871BC4202D340F2CF2006
:1084A0001CE10EB128793055641C85F804B0BC423B
:1084B00002D34FF4347011E10EB1287930554046A3
:1084C000641C00F015F9401C2871BC4202D340F234
:1084D000D12003E10EB12879305598F82000641CB2
:1084E0002871BC4202D340F2D220F7E00EB12879C5
:1084F000305598F82200641C2871BC4202D340F227
:10850000D320EBE00EB128793055B8F82200641C76
:10851000000A2871BC4202D34FF43570DEE00EB180
:1085200028793055D8F810000168CAF81810494663
:10853000CAF8089012E000BFD8F81000BC4280686A
:10854000405C287102D34FF43770C7E00EB1287930
:108550003055DAF80810491CCAF80810DAF8180083
:10856000641C8142E8D307202871BC4202D34FF437
:108570003870B3E00EB1287930552520641C28717D
:10858000BC4202D340F2E120A8E00EB12879305578
:10859000641C85F804B0BC4202D340F2E2209DE0A6
:1085A0000EB128793055641C85F80490BC4202D382
:1085B00040F2E32092E00EB128793055641C85F832
:1085C0000490BC4202D34FF4397087E00EB1287991
:1085D0003055641C85F80490BC4202D340F2E5207B
:1085E0007CE00EB128793055641C85F80490BC42BB
:1085F00002D340F2E62071E00EB12879305509200F
:10860000641C2871BC4202D340F2E92066E00EB13E
:10861000287930550520641C2871BC4202D340F2F1
:10862000EA205BE00EB1287930550021641CDAF8AD
:108630000400FEF740FECAF81C0000782871BC4216
:1086400002D340F2EE2049E00EB128793055641C87
:1086500085F804B0BC4202D340F2EF203EE00EB1F8
:108660002879305598F82400641C2871BC4202D344
:108670004FF43C7032E00EB128793055B8F8240040
:10868000641C000A2871BC4202D340F2F12025E0AC
:108690000EB128793055641C85F804B0BC4202D371
:1086A00040F2F2201AE00EB128793055641C85F8AA
:1086B0000490BC4202D340F2F3200FE00EB12879BF
:1086C0003055641C85F80490BC4202D34FF43D70D1
:1086D00004E00EB12879305540F2F62028600120E0
:1086E000BDE8F09F0020C5F80090F9E7982E002023
:1086F00010B50021FEF7F2FD007810BD30B502681C
:10870000044687B08878507208799072C878D07221
:108710008879107348795073B1F80700D08101202F
:1087200002F8080F487800F01F00022801D103204A
:108730001070002002F10801039002910490D1888A
:108740008DF8000003916846FFF7E8F902A90020C0
:10875000FEF764FF050008D1074805A90068CDE9C8
:1087600005040020FEF744FE05469DF80000FFF7D3
:10877000F9F907B0284630BD204F030010B518B9ED
:10878000084600210BF002FD002010BD2DE9F04746
:10879000074600888EB0804603F012FD82460446EC
:1087A0002D4800252A460178404600F069FD787979
:1087B000400734D501254FF6FF7603AB2A46072143
:1087C000504608F0B9F9010004D0404609F0AEFC6B
:1087D00000252BE0B1463146049803F045FC0646DF
:1087E00048450FD004460146404603F0D3FC4046BE
:1087F000FEF708FB30B9404609F06AFC4046FEF738
:1088000001FB48B122460721504608F00BFA01004F
:1088100003D0404609F08AFC00254E4506D040466C
:1088200008F06EFB10B1504603F0B6FC02208DF844
:108830001800ADF81A807879400701D5012000E0D2
:1088400002208DF820008DF8215006A802F05CFB74
:108850000EB0BDE8F08700005C2C00202DE9F0434D
:108860000546407C93B00E460024A0B107949DF8C5
:108870001C0020F00F00401C20F0F00010308DF89C
:108880001C00707B8DF81D009DF81E0020F0060076
:10889000801C8DF81E001C216846FDF70EFE9DF819
:1088A000000040F002008DF80000697C11B140F03A
:1088B000100001E020F010008DF8000001940394F6
:1088C0000494687C00B107A8CDE9050401278DF860
:1088D000427042F61920ADF840000D94B07B8DF83F
:1088E0003400F07B8DF835009DF83600142120F01F
:1088F0000600801C20F019008DF83600307B8DF8C2
:10890000440008A8FDF7D9FD0DF140080DF1340928
:10891000ADF8287011A8CDE90889ADF82A40ADF866
:108920002C700C90A888AB1D08AA6946AADF002805
:1089300038D1B06898B38DF8427042F60810ADF89F
:1089400040000D94307C8DF834009DF8350020F007
:10895000FF008DF835009DF8360020F00600801CE1
:1089600020F019008DF836000EA8B16800F0E0FF85
:108970000646142108A8FDF7A0FDADF828600EA852
:10898000CDE90889ADF82A40ADF82C600C90E88854
:1089900005F10E0208A9ABDF002803D101E0FFE7D3
:1089A000EC81002013B0BDE8F083000010B50E4943
:1089B0000E4809F032FCC1B20B484FF6FE72EC389B
:1089C00000F00EFB00280DD008280BD0132809D08A
:1089D000112807D043F20141884203D0BDE810407E
:1089E000FEF7A2BA10BD0000F0300020A82B002036
:1089F0000A4601461046AEDF7047102802D31038F1
:108A0000C0B2704740F0800070472DE9FC47002558
:108A100017880646158090F82D001446894630B117
:108A20003A462146484600F055FC051E09D1B0786B
:108A30004FF00C0A18B32088C846001DB84202D96E
:108A40005046BDE8FC87684679DF0028F9D12088C8
:108A5000032108F8001020881921401C80B22080D2
:108A600008F800102088401C80B2208000EB08012C
:108A7000BDF800000BF038F8218808442080F07819
:108A80000222C8B1218896F9033001F1030C48464F
:108A9000BC45D5D8425421884FF0010C491C89B2FD
:108AA000218000F801C02188491C89B2218009F881
:108AB00001302088401C20807068B8B1218890F96E
:108AC000003001F1030C4846BC45B9D84254218816
:108AD0000A22491C89B2218042542188491C89B24A
:108AE000218009F801302088401C2080308950B155
:108AF000CDE900474B460622022106F108000BF0A3
:108B000083FB051E9DD1308A50B1CDE900474B460D
:108B10000722032106F110000BF076FB051E90D111
:108B2000308B50B1CDE900474B461522142106F198
:108B300018000BF069FB051E83D1306A30B13B464B
:108B40002246494601F0B7FB051EDBD1706A30B101
:108B50003B462246494604F005F8051ED2D196F858
:108B60002C0038B13B4622464946304609F0F4FB1A
:108B7000051EC7D1307838B13B46224649463046BB
:108B800004F09AF8051EBDD128465AE718B50446E8
:108B90000020ADF8000013466A46204600F006F8B3
:108BA000002802D0BDF80000204418BD70B588B17F
:108BB00082B10024158803E0065D641C3444A4B22D
:108BC000A54203D8061976789E4201D08C42F3D391
:108BD0008C4201D3002070BDA11C1180005D401E9D
:108BE00080B270BD80F8301070472DE9F0410E0062
:108BF000044606D02CB196F87A000025012803D04F
:108C000006E00E20BDE8F08196F89800012821D0FA
:108C10004FF00108A5702C2206F17801201DFDF708
:108C200025FC84F83050D6F8A4006063D6F8A8007C
:108C3000A0634FF6FF70A4F8A80004F19400C4F8F4
:108C4000A400C4F8AA50A4F8AE5084F8B05020781C
:108C500010B104E00720D5E7FF2084F8540004F1A8
:108C600055011F27C4F89410A4F8987004F19802D5
:108C70003046FFF7CAFE0028C4D116F13C0F0ED0D3
:108C800004F17401C4F89C10A4F8A07004F1A002CF
:108C900006F13C00FFF7B9FE0028B3D103E0C4F8A9
:108CA0009C50A4F8A05084F85180208BA4F8480070
:108CB00084F83C80256484F85050606960644646BE
:108CC00004F13C02002104F1540072DF002899D124
:108CD000267097E710B50288102A1BD0112A20D0E1
:108CE000262A1DD1007A0C46012801D0022817D16E
:108CF000A0780521401CB0FBF1F201FB12012046D7
:108D000000F052F800280BD0A16B002908D0BDE874
:108D100010400847C27B012A02D18088A1F8A80030
:108D200010BD0C46002184F8B2108088B4F8A81059
:108D30008842F5D120790028F2D10121DFE710B572
:108D40000C46022801D0032810D1607800280DD0ED
:108D500000206070A178204600F026F8002805D099
:108D6000A16B002902D0BDE81040084710BD10B526
:108D7000044690F8540074DF012084F8B20000200B
:108D800084F8B40084F850000621204602F0C4FAAA
:108D9000002808D1A178204600F006F810B1A16B98
:108DA00001B18847002010BD2DE9F05F044600782E
:108DB0000F4638B1A770002005F0B0FA012620B1A7
:108DC000667007E10820BDE8F09F0025C4F8AA50AE
:108DD000A4F8AE5084F8B050A07910B1A078012862
:108DE00006D0E07968B1A078012801D0022808D126
:108DF000616B21B184F8B1600820884701E084F8F4
:108E0000B15004F1AB0100200A5C0AB1304603E026
:108E1000401C0628F8D300204FF002084FF0030B47
:108E2000012F06D0022F0CD0032F0FD0042F15D105
:108E300010E0A17929B194F8241011B908B1304695
:108E40000DE0E17911B108B1404608E0207A08B19F
:108E5000584604E0607A08B1042000E02846A0707B
:108E6000616B41B1032801D0042804D1607910B1AD
:108E700094F8B200A0B184F8B35004F13C0018217A
:108E80000746FDF71AFB04F12C0084F83C6081468C
:108E900008F06AF958B194F82C0084F8510008E001
:108EA00084F8B45084F8B36007208847E5E784F875
:108EB000516094F8240050B1484608F055F920B1AB
:108EC00094F8280084F8520001E084F8526084F895
:108ED0005050A27804F1AA0104F194094FF0060A57
:108EE000052A60D2DFE802F078030F223F0084F801
:108EF0003160C4F8A450C4E9101584F83C80802087
:108F0000A4F8480051E084F8318094F824203846D1
:108F100012B10722027001E080F800B0228A82813B
:108F2000C4F8A4504160E168B9603EE06069B8608F
:108F3000208BB88194F824003D4610B184F83CA001
:108F400001E084F83C6020460BF00CF940B185F854
:108F500014800421204602F0DFF920BB05211EE029
:108F600084F831B01DE0E069B860208CB88194F8D5
:108F700024003D4610B184F83CA001E084F83C6038
:108F800020460BF0EFF848B185F814800421204604
:108F900002F0C2F938B984F831A002E0042184F863
:108FA0003110C4F8A490A07878B13A4604F1540086
:108FB000D4F8A41072DF00287FF405AF94F83010C5
:108FC00094F8540073DF0028F6D1616B11B194F866
:108FD000310088470020F6E684F83150F5E70000BC
:108FE000F7B594B0174605003CD0287C9DF8541086
:108FF0000024884252D000264FF0010E0D9615A88D
:10900000ADF834E00E90ADF83660E9880DAA4FF661
:10901000FF70ACDF040026D19DF854002874687CF2
:10902000A0B30F96109611961296E888ADF83C0002
:10903000BDF83600ADF840000DA811900E981290C2
:10904000A7F57F408DF83EE0FE3805D039460FA8E1
:10905000FFF7CEFC044621E0684600F09DF80025AD
:109060006F460FE00E2017B0F0BD00BF07EB4506BE
:10907000B08800F0CFF8022803D144B10FA9B0881E
:10908000AEDF6D1C0098A842F0D807E005E0B1887B
:109090000FA8FFF7ADFC0446F3E708242046E2E7FB
:1090A00038B50D46040018D0BDB128682060287975
:1090B0006074FF20207401208DF8020041F60F003B
:1090C000ADF80000221D69460120A8DF002803D169
:1090D00029462046FFF7C2FB38BD0E2038BD38B503
:1090E000002924D0002822D00288502A1FD105460A
:1090F000487C0C4600281AD0E9886289A81D914254
:1091000015D14189022912D1216800290FD00C30D4
:1091100000F00AFC08B1002000E001208DF80000FA
:10912000A888ADF80200226869462046904738BDFD
:1091300070B5040012D001461C221448FDF796F9C0
:109140001248134D0560206850B17ADF002806D11F
:109150002068016829604068686005E00E2070BDE5
:109160000B487BDF0028FAD108484FF6FF7114380E
:10917000084A20F8041B0549343901600021FDF735
:10918000DFFE0028EBD0032070BD0000E4E10020EA
:109190001C2C0020DD3B03000149496801F06CB83C
:1091A00000E2002010B5044600F08AF8002805D03F
:1091B0002146BDE81040024803F0A1BE10BD0000EA
:1091C00010E2002070B515460E4604460AF0ECFF8A
:1091D000002809D0054800EB840080692A46314602
:1091E000BDE8704002F0D6B870BD000000E200207B
:1091F00070B50546002400F063F838B129460448EC
:1092000003F07DFE08B1022400E00124204670BD79
:109210000CE2002070B50546002400F051F838B18A
:109220002946044803F06BFE08B1022400E0012443
:10923000204670BD08E2002010B51821034803F055
:1092400039FE182800D0C0B210BD000000E2002096
:1092500070B505460C4608460AF0A6FF60B12846E0
:1092600000F02EF840B10548294600EB8400BDE827
:109270007040183003F043BE002070BD00E20020B3
:1092800070B5054614460E4608460AF08DFF0028C4
:1092900012D0284600F014F800280DD007482946BF
:1092A00000EB860018301CB1BDE8704003F032BE00
:1092B000BDE8704003F0E3BD70BD000000E2002097
:1092C000142801D3002070470146014803F017BE5F
:1092D00004E200207CB5054608880C46093090421F
:1092E00001D90C207CBD68466DDF0028FAD12188A9
:1092F0000820685420881B21401C80B220802954FB
:109300002088401C80B220802844DDF801100160D4
:10931000BDF8051081802088801D80B220809DF8D6
:109320000010490800D0012129542088401C2080C9
:1093300000207CBD7FB5044601208DF8060041F673
:109340000A00ADF80400454A01A90120A8DF002861
:109350007ED1228804F13C0552B140482B46801C46
:10936000009042F62920616800F066FE002873D163
:10937000228952B139482B460A30009042F6242007
:10938000E16800F059FE002866D1228A52B13348C4
:109390002B461230009042F62520616900F04CFE09
:1093A000002859D1228B52B12C482B461A300090FC
:1093B00042F62720E16900F03FFE00284CD1228CC4
:1093C00052B126482B462230009042F62620616A90
:1093D00000F032FE00283FD1228D52B11F482B46AB
:1093E0002A30009042F62820E16A00F025FE00288D
:1093F00032D1216B71B102A809F064FE17482B46E7
:1094000032300090082202A942F6232000F014FE18
:10941000002821D1606B58B110492B463A31009198
:109420000279016842F62A2000F006FE002813D1D6
:10943000A16B81B102A808F07EF908482B464230A2
:109440000090072202A942F6502000F0F5FD00E04E
:1094500002E0002800D1002004B070BD7A2C00206A
:1094600038B502880446212A2FD012DC1E484FF05E
:1094700003011E4D0088102A01EB004011D0112A73
:1094800006D1227A1AA105F099FC4FF6FF70A88048
:1094900038BD3B2A23D0562AFAD18088132176DFA3
:1094A0000DE01AA105F086FC072000F0EFFB08B1E3
:1094B000FDF73AFDA188A980174803F083FE002834
:1094C000E6D0BDE83840FDF72FBD00200090A08811
:1094D00069468FDF0028DBD0FDF726FD38BD808888
:1094E000132176DFEBE70000182F0020882B0020E7
:1094F000446973636F6E6E65637465642C20726576
:1095000061736F6E2025642E00000000436F6E6E45
:1095100065637465642E00002C30002010B51A4C71
:109520000188606810290ED011292BD1401E60607F
:1095300028D1FDF7FCFB002824D02168002921D088
:10954000BDE810400847D0B900210122084600F0CC
:109550007BFB08B107280FD107220221012000F070
:1095600073FB08B1072807D104220221002000F074
:109570006BFB20B1072802D0216801B188476068E1
:10958000401C606010BD0000142C00202DE9F04745
:1095900001883B4E40F2F3194FF6FF7510291BD09E
:1095A00011293ED0122954D0502946D1C188F289C0
:1095B000841D914241D1618902293ED1868830467D
:1095C00002F0AAFE050038D004F10C0000F0ACF95E
:1095D000A8B3294630464EE0C17B8788044601295E
:1095E0002BD1A846284602F097FE050017D02F8001
:1095F00000202872234843464A460168C5F80A10ED
:109600004068C5F80E0004F1100105F10A0002F0EF
:109610004FFF6872F08900280FD129462AE0042004
:1096200013E0808802F078FE040006D06068FDF741
:1096300007FD08B108F05EFD2580BDE8F087FFE773
:109640006868FDF7FDFC0028F7D0BDE8F04708F09A
:1096500051BD87880646384602F05EFE0400ECD015
:109660002B464A4606F1080104F10A0002F020FFE9
:10967000607221463846BDE8F04700F063BE000046
:10968000E4E100201C2C00202DE9F04F07468588DE
:1096900002883D48012197B08346102A09D0112A3B
:1096A00049D01A2A6CD1387AB1EB101F45D2012269
:1096B00044E0354C083CA068C0430B9061680BA89F
:1096C00003F041FC0B990CA800F0D6FD2C220CA94C
:1096D0006846FCF7CBFE0026E946A04610E000BF36
:1096E00009EB46005FF00004B0F804A008EB84002A
:1096F0005146001D03F0C3FB641C1D2CF6D3761CE1
:109700000098B042ECD8142D05D317B00420BDE862
:10971000F04FFDF709BC2946584603F0FBFB2946EC
:1097200008F1040003F0F6FBF87B012828D0164866
:109730002946001D15E029461AE000220221B1EB5E
:10974000101F01D2012600E000260F49083901F15F
:109750001000041D294682B103F0DCFB36B1294616
:10976000204617B0BDE8F04F03F0D4BB2946204691
:1097700017B0BDE8F04F03F082BB03F080FBF5E7C4
:1097800017B0BDE8F08F000008E2002010B50446D5
:109790000748007800280AD0204602F0EBFB20465C
:1097A00009F0BEF92046BDE8104001F06BBF10BDC6
:1097B0004C2C002030B50446008CC3B0A0F57F428D
:1097C000FF3A23D06A46204602F048FA0546ADF833
:1097D000F40000203E903F90409041902189ADF8E8
:1097E000F8100121ADF8FC008DF8FA103DA840906A
:1097F000CDF804D1208C3EA9AEDF002804D1BDF8FD
:10980000F410A94200D00C2043B030BD0820FBE783
:1098100038B5044608682060087960714FF6FF701B
:109820002084002084F82200A4F84C00F42084F85E
:109830004E0001208DF8020041F60D000D46ADF8F6
:109840000000A21D69460120A8DF00280ED129468C
:10985000204602F065F9002808D1A86828B12946F9
:10986000204600F06BF8002800D1002038BD38B544
:109870000288102A15D0112A15D0502A16D130F896
:10988000062F8B899A4211D10C46418902290DD1AC
:10989000216800290AD00C3000F046F838B10020C9
:1098A00006E0808801E04FF6FF70088438BD012093
:1098B0008DF80000226869462046904738BD028C2A
:1098C0004B889A4208D10A88A2F52063773B03D1DE
:1098D0000979C91E80F84E10704770B50446B0F87B
:1098E0004C000D4614280AD104F126012622881EB8
:1098F000FCF7BCFDB4F84C00401EA4F84C00B4F8D2
:109900004C0004EB4001401CA4F84C008D8470BD59
:1099100080F82210704770B504460D460846FCF7E3
:10992000D7FD2080656070BD007800F001007047B1
:109930000A7802704978417002207047F0B58FB004
:109940000D4606461C216846FCF7B7FD00249DF82D
:109950000000039440F002008DF8000001270194FC
:109960008DF8367042F63820049405940694ADF8CC
:1099700034000C94E87B8DF83000287C8DF83100A1
:109980009DF83200142120F00600801C20F0190000
:109990008DF8320007A8FCF790FD0DA807900CA8E1
:1099A000ADF824700890ADF82640ADF82870A8688E
:1099B0000B90F08806F1100307AA6946AADF0FB0E2
:1099C000F0BD00000149085C7047000090480300AA
:1099D000084908B5085C0090684604F03FFFD0F8DD
:1099E00010050099C84010F0010000D0012080F05F
:1099F000010008BD904803002DE9FC410646C00760
:109A00004FF000050ED0104F00240122385D009564
:109A100000231146019504F01BFE641C042CF4D3B2
:109A200000F04EF8B0070DD5074E0024361D002279
:109A3000305D032300951146019504F009FE641C76
:109A4000042CF4D3BDE8FC818C480300094908B517
:109A5000085C0090684604F001FFD0F80425009BE4
:109A60000121994021EA0203C0F808351140C0F8ED
:109A70000C1508BD8C4803000249085C012104F064
:109A80005CBF00008C4803000249085C002104F020
:109A900054BF00008C480300084908B5085C0090DA
:109AA000684604F0DBFED0F804050099C84010F0C9
:109AB000010000D0012080F0010008BD8C480300A7
:109AC00010B500242046FFF7D7FF641C042CF9D3FF
:109AD00010BD10B500242046FFF7D6FF641C042CEF
:109AE000F9D310BD10B50246064B4FF0FF300021F0
:109AF0005C5C944201D1084610BD491C0429F7D38F
:109B000010BD00009048030070B50C4E0C004FF0E3
:109B1000000530600BD0012000F06AF808B1022087
:109B200004E0002000F064F800B10B2020707068A1
:109B300010B9FDF7FCF80546284670BD142C00202E
:109B400010B5002000F0D4F908B1062806D1012094
:109B500000F0CEF908B1062800D1002010BD0000A9
:109B60002DE9F0470D468146FFF7BCFF0446042867
:109B700036D2DFF874801B481C4EA8F10C0725B3C1
:109B8000012D0ED0022D2BD104EB4400304445783A
:109B9000002D25D0B968002922D02846BDE8F0471D
:109BA000084704EB4401755C0E44717849B10E4AD4
:109BB0004FF40041093A8068FDF7FEF908B987F8CB
:109BC0000390B17808F80410E2E78068FDF738FAEE
:109BD00004EB4401314418F804008D78A842D7D032
:109BE000BDE8F08794480300102C002084E1002099
:109BF000042801D2FFF7ECBE002070470146104850
:109C000010B58088042907D007290ED00A2915D15C
:109C1000BDE8104008F070BF132176DF0CE000288B
:109C20000CD0BDE81040FDF77FB9A0F57F41FF39AA
:109C300004D10448FFF79BF80828F0D110BD0000BC
:109C4000882B00203830002070B50023042810D263
:109C50000D4D00EB4004012A02D101290CD0002255
:109C6000094E00EB4000304461B1012906D00229C1
:109C700006D00723184670BD0E30C2B22A55F9E748
:109C80004270F7E78270F5E784E10020044A01465C
:109C900000201279D20702D0084600F04DB8704774
:109CA000042C002070B506461E480024C0E901615E
:109CB000B00720D50025012211462846FFF7C4FF32
:109CC0006D1C0446042D02D2002CF4D013E094B98C
:109CD00040F2666204211448FDF7ACF804000AD192
:109CE000FDF796F8040006D10F48104A0021001F26
:109CF000FDF726F90446F00712D00120FFF77CFE9D
:109D000074B909480A4A00210C38FDF719F9040012
:109D100006D10548074A01210838FDF711F9044624
:109D2000204670BD042C0020A0480300BD9F020007
:109D30005DC50200FF6D02002DE9F05F6A4C05462B
:109D400000266078B34618B184F801B002F0EEFB4B
:109D5000664F4FF47A694FF4C87A4FF00108182D16
:109D600062D2DFE805F0AC0C0C31404D62676B74D9
:109D70006B74BE7D7D7D7D7DACAFB2B5BEBE002077
:109D8000FFF78AFE00284FF0000008D0FFF774FEAE
:109D9000022D02D14FF4E16008E0484606E0FFF7EB
:109DA00073FE022D01D1C82000E05046410CC003D3
:109DB0004FF4FA72801841F100012570520000231F
:109DC000FCF710FB01462AE00020FFF765FE0028A3
:109DD0004FF0000004D0FFF74FFE4FF44870E5E766
:109DE000FFF752FEDFE70020FFF756FE00284FF096
:109DF000000002D0FFF740FECFE7FFF745FED4E7B3
:109E00000020FFF749FE00284FF0000002D0FFF7C6
:109E100033FE01E0FFF738FE257041F69A1100226B
:109E20003868FDF7C9F8064646E00020FFF70EFE49
:109E3000257008E0002051E025703DE084F80180A5
:109E40000120FFF703FE002240F6CD41E8E784F849
:109E500001800120FFF7FAFD00224FF48041DFE787
:109E60007868FDF7EDF80646D5F1110000D02EB167
:109E70000220FFF701FE84F802B01DE0012816D988
:109E800080B2C8214843C117C90341EA5041C00309
:109E90004FF4FA72801841F1000152000023FCF7E0
:109EA000A1FA014600227868FDF786F806460220EE
:109EB000FFF7EAFD84F802803046BDE8F09F02F02B
:109EC00035FBB9E702F032FBB4E702F02FFB04E008
:109ED00002F02CFB0020FFF7D7FD0120FFF7D4FD97
:109EE000AAE7FFF7F6FDA7E7042C0020944803003B
:109EF00001210AF0F1B900002DE9F8430546861C5E
:109F000000208DF8000090460F464FF0010968468A
:109F1000FDF704FE1B4C20683860D4E90001401AAC
:109F2000A16804F21C47081A0EE00121384603F02C
:109F300004F802F0B3FC0146384602F0FEFFD4E913
:109F40000001401AA168081A401C8642EDD8B8F1F9
:109F5000000F03D0052065F3891002E0062065F3A9
:109F60009F50A2682168114004EB8101C8602068FD
:109F7000304420609DF80000FDF7F4FD4846BDE840
:109F8000F8830000ECEB002030B482680468531CB6
:109F90008360A154D0E901128A4202D330BC03F09D
:109FA000EABF30BC70470000034803C8814201D1BA
:109FB0000120704700207047ECEB00200078022160
:109FC000FFF7CEBD05494FF0FF32082841F82020A9
:109FD00002D3084480F8582070470000E8E40020CD
:109FE000F0B54FF0FF3512B10023082601E0082339
:109FF0000C260C4C05E000BF54F823707F1C04D0E5
:10A000005B1CB342F8D32846F0BD26185DB286F833
:10A01000305044F82310002AF5D1E11881F8580097
:10A02000F1E70000E8E400200249084490F930001C
:10A0300070470000E8E400202DE9F0438FB01E4691
:10A04000DDF8589015460F00804602D10020FCF73D
:10A050006BFF15B90020FCF767FF1C216846FCF771
:10A060002CFA00249DF80000039440F002008DF8C3
:10A070000000012001948DF83600049405940694A4
:10A08000ADF834800C9430788DF8300070788DF80D
:10A0900031009DF83200142120F00600801C20F0D1
:10A0A00019008DF8320007A8FCF707FA0DA80790F1
:10A0B0000CA808900748ADF82450ADF82640ADF83C
:10A0C00028500B974B4607AA69460088AADF0FB0B5
:10A0D000BDE8F0837A2C002070B504464FF6FF757A
:10A0E0000A462846AC4208D14FF4807421461046F7
:10A0F00007F092F9A04209D070BDFF2CFCD8214690
:10A10000104607F07CF908B1204670BD284670BDA6
:10A11000426812681047000070B5084C050009D06D
:10A1200010342168002907D0086820604968284653
:10A130008847F6E70834F4E770BD0000D4E4002057
:10A14000054A012120B1012805D19170FFF7E4BF34
:10A1500051700020FAE77047D4E400202DE9F05F49
:10A1600026484168F1B3DFF898B00E688146DBF805
:10A17000004087688078E11B21F07F45ED1CB0B975
:10A18000DFF880804FF48030C8F84403C8F8040337
:10A190001120FCF75FFB1120FCF767FB4FF0010A71
:10A1A000C8F800A02F2005F07BFC89F802A0B5427A
:10A1B00000D23546124BE8193C3320F07F4018603E
:10A1C000DBF800105A46091B21F07F41001B20F0EC
:10A1D0007F40C91C81420FD9106818602F2005F0FC
:10A1E0005FFC00E004E0BDE8F05F1120FCF748BB35
:10A1F000BDE8F05F07F0A2BDBDE8F09F482D00204C
:10A2000004150140001001402DE9FC41064681790A
:10A21000007879B1002104F0D7FA7078002104F0B9
:10A22000D3FAB7784FF0FF34FF2F09D0384604F047
:10A23000E8FA06E004F0E5FA707804F0E2FAF0E7F4
:10A240002746F578FF2D03D0284604F0DAFA00E01F
:10A2500025463079FF2803D00446002104F0B4FAE3
:10A26000CDE90054727831783B46024804F0ABFBEC
:10A27000BDE8FC810050024073B58CB0064600205A
:10A2800000900D9880B100246D4621460DA802F083
:10A2900036FE30B1009805EB400084800098401CE9
:10A2A0000090641C142CF0D32C2269463046FCF735
:10A2B000DDF80EB070BD2DE9F04117880646B81DD7
:10A2C00014460D46984202D90C20BDE8F081318831
:10A2D000072206290AD34FF4486C4FF6FF736145F5
:10A2E00001D9994202D17088062801D21046ECE7C4
:10A2F000604501D99842F9D1994203D0984201D0E2
:10A300008142F3D80520E85520881221401C80B2F4
:10A31000208029542088401C80B220804119308838
:10A3200009F0E2FB2188084480B22080411970883E
:10A3300009F0DAFB2188084420800020C5E7FCF7FB
:10A34000F3BD000038B54A7A0F4B62B100220A72A1
:10A350005969002906D001228DF80020ADF80200CD
:10A360006846884738BD0A7A62B19B684C680246E5
:10A3700019462046FCF720FE0028F3D0BDE83840FF
:10A3800007F0B8BE5B68F1E7E4E10020F0B585B006
:10A3900016460F4604461D4614220B496846FCF734
:10A3A00065F80A488DF80870ADF80240ADF80A600B
:10A3B0008DF80C50017800222046FEF761FF6846B8
:10A3C00000F0A2FD05B0F0BDAC4903005C2C0020FC
:10A3D000EFF30580C005C00D10D0103840B2002842
:10A3E00006DA00F00F0000F1E02090F8140D03E011
:10A3F00000F1E02090F80004400970470F207047FA
:10A40000F0B587B0074600200490ADF81010059015
:10A41000ADF812100190029001AA04A9384690DF0D
:10A42000060022D005F0D8F9114C034601252088FA
:10A430003A4605EB00400F4904F0C7FCBDF8042084
:10A4400012B9BDF8060038B12088BDF8063005EB1A
:10A45000004009A104F0B9FCBDF808202AB1208809
:10A46000154905EB004004F0A9FC07B03046F0BDEB
:10A47000D82E0020B04F03005468652072657175B6
:10A4800065737465642054582F5258207061636B53
:10A490006574206C656E67746820697320746F6FD3
:10A4A000206C6F6E672062792025752F2575206FCF
:10A4B00063746574732E0000FC4F030030B50446CE
:10A4C00085B000211B4806F09AFF00282FD00025F8
:10A4D000204601F064FA68B1112812D086281BD0FA
:10A4E000A0F54051023903D00146204607F00AFE8C
:10A4F000294607E005B029462046BDE8304002F075
:10A50000ABB90121204602F0A7F905B00021BDE852
:10A510003040084806F0A7BF142207496846FBF7F9
:10A52000A5FFADF80240684600F0CAFCE0E705B0C0
:10A5300030BD0000252C0020D44803007FB50C4618
:10A5400010B1012004B070BD2079002638B141F669
:10A550001D5501281BD0022826D00F20F2E702202B
:10A56000207102960396E0680190694601A807F001
:10A57000FDFA50B102988188E18000882081BDF801
:10A580000010029807F070FBDCE70A20DAE70A4BBC
:10A590006A460021A01D07F0A5FA38B1064918390E
:10A5A0008E61CE610A28CDD12846CBE7024881884A
:10A5B000019807F059FBF5E7882D00202DE9F047B9
:10A5C0000025DFF88C803CE06068002100EBC506C8
:10A5D000012032789146FBF736FFD4E9062300EAE2
:10A5E000020701EA030C57EA0C0728D082438B4389
:10A5F0004846C4E9062305F011FB327882469146AD
:10A6000001200021FBF71FFFD4E9042300EA020424
:10A6100001EA03074A4650460021FBF714FF444075
:10A620004F403C430BD17078012801D0012100E05C
:10A630000021726881EA0A010AB1484690476D1C00
:10A64000EDB298F8000044468542BDD3BDE8F087DE
:10A65000282D002010B50021024802F089FC80F36B
:10A66000100010BD08F000202DE9F04387B004462B
:10A67000FFF7AEFE022803D2082007B0BDE8F08342
:10A68000A06838B1E06828B1206918B1206808B125
:10A69000207908B10720F0E789484FF0FF31C0F872
:10A6A00008134FF6FF78C0F804834FF0E0204FF412
:10A6B00000014FF001090025C0F88012814BE02213
:10A6C00083F80024C0F800117F4E2068804B706032
:10A6D0007E48A16803AF0160E16841602169816043
:10A6E0000FCB87E80F0000237A4A03A906F10C007C
:10A6F00002F020FF0028C0D106F1100005F0CCFCCC
:10A7000006270023CDE900751A4619461B2003F0E1
:10A7100085FF0023CDE900751A4619461A2003F07B
:10A720007DFF6A482B21143801702C2141702D21A6
:10A7300081702E21C1702F2101710721417180F894
:10A740000690C571057280F8099085722179E1B192
:10A750000020FCF7E9FB5D485F49143802F038FE41
:10A7600000288AD14FF0020986F80190BBEE090A51
:10A7700086ED020A08F0FCF80025A027012202A9B4
:10A78000002008F029F928B109E04FF08041C160AC
:10A790000574E0E7BDF80810B7EB112F03D06D1C6E
:10A7A000052DEBDB20B9BDF80800B7EB102F03D067
:10A7B00008F0CAF8052060E74546424620213020CF
:10A7C00008F080F92A464FF4F971282008F07AF948
:10A7D0002A4640F622712C2008F074F92A4644F2E9
:10A7E00046413C2008F06EF92A4640F237112420F9
:10A7F00008F068F92A467321022008F063F92A4616
:10A8000044F2BF51302008F05DF92A4640F60F713E
:10A810002E2008F057F92079E8B30020FCF784FBDC
:10A820002A46B021062008F04DF92A4670210A2058
:10A8300008F048F940F20F3200210E2008F042F9EA
:10A840002A4643F63C41102008F03CF92A4644F2DF
:10A850004001222008F036F92A462621242008F05B
:10A8600031F92A460021342008F02CF92A464CF20E
:10A870009C41322008F026F92A464FF4B8712A206C
:10A8800008F020F92A468821202008F01BF9002131
:10A890002A46242000E00CE008F014F901212A46A1
:10A8A000080208F00FF908F04FF886F80190002030
:10A8B000E3E62A460B21042008F004F9B0E7000083
:10A8C0000070014017E000E0E82B002038E1002094
:10A8D0007C480300F5330300F5BC02001CB50B48AF
:10A8E0004178022901D008201CBD0321417008488D
:10A8F000002241680091016801918068C0F34F0116
:10A90000684605F05FFA00201CBD0000E82B00201F
:10A9100038E1002010B5074C6078032803D00528E3
:10A9200001D0082010BD05F0B5FA022060700020AB
:10A9300010BD0000E82B00200E4910B50A784C78B5
:10A940000023A24212D0521CD2B20A70022A00D1B5
:10A950000B70084A0B780C3252F82320026088688A
:10A96000104420F07F408860012010BD036000206B
:10A9700010BD0000482D002013460A460021FFF7B5
:10A9800005BD6FEA0061C90F61F31F10704710B574
:10A990000121FCF7A3FC0021FCF78DFC007810BD21
:10A9A0000106044900D5903100F00F0001EB0010C2
:10A9B00070470000A4E500202DE9F843104D0F4634
:10A9C00080461E4691466946286802F02CFA04002B
:10A9D00014D01C21FBF771FD01202071C4F81490E4
:10A9E000380BC4F80080C4E902606946286802F0A8
:10A9F0003BFA06F0FFFF0020BDE8F8830420FBE7E8
:10AA0000A04B030010B509F0B3F98020FFF7C8FF91
:10AA1000817B0124032902D00068002809D180200D
:10AA2000FFF7AFFF8440E143BDE81040014802F06A
:10AA30008ABA10BDF82C0020812004F013BF8220B8
:10AA400004F010BF832004F00DBF842004F00ABF7F
:10AA5000852004F007BF862004F004BF872004F09F
:10AA600001BF000038B5882509F082F92846FFF7B4
:10AA700097FF817B0124032915D00068002811D19C
:10AA80002846FFF77EFF8440E1430C4802F05BFA62
:10AA90000B480A49806800900C398DF802504968CB
:10AAA0006846884738BD2846FFF76BFF8440E1437E
:10AAB000BDE83840014802F046BA0000F82C0020FA
:10AAC000F049030038B509F053F90020FFF768FF9B
:10AAD000817B0124032905D0006868B1BDE83840B6
:10AAE00003F0F9B80020FFF74CFF8440E143BDE8D4
:10AAF00038400A4802F027BA0020FFF742FF84409E
:10AB0000E143064802F01FFA05480449C0680C39C1
:10AB1000009049686846884738BD0000F82C00203E
:10AB2000F0490300012004F0B9BE022004F0B6BED3
:10AB3000032004F0B3BE042004F0B0BE052004F0EE
:10AB4000ADBE062004F0AABE072004F0A7BE000098
:10AB500038B5082409F00CF92046FFF721FF817B66
:10AB6000032915D00068002812D12046FFF709FFFD
:10AB700001218140C943074802F0E5F9064805492B
:10AB8000406900900C398DF8024049686846884752
:10AB900038BD0000F82C0020F049030070B51548BE
:10ABA00004680460BFF36F8FBFF34F8FBFF36F8FE5
:10ABB000BFF34F8F02F0AAFF38B10F48016921F0AF
:10ABC000011201F001111443016101266CB194FAE4
:10ABD000A4F0B0FA80F52846FDF70FFF06FA05F15C
:10ABE0008C43294609F028FAF0E7BDE8704009F0E7
:10ABF000D5B800006C740240EC2C002010B5054C58
:10AC0000A078FFF7BEFE0146A078BDE8104009F02D
:10AC100013BA0000EC2C0020F8B51A4800681A4D51
:10AC2000C6B2A878FFF7ADFE012404FA00F1288926
:10AC3000EA68C04380B21043014202D0A87809F00C
:10AC400069F906F08000A8700020FFF79AFE04FA68
:10AC500000F68020FFF795FE04FA00F006430A484C
:10AC6000F1430C3002F06FF98020FFF78AFE844038
:10AC7000A86804430548AC60006A009069686846AB
:10AC80008847F8BD80740240EC2C0020F049030096
:10AC900038B5002000900B480068ADF8020088200D
:10ACA000FFF76FFE012505FA00F40820FFF769FEA3
:10ACB000054985402C43886804438C604968684690
:10ACC000884738BD20750240EC2C002070470000FA
:10ACD000F8B518480568284604F026FEBFF36F8FC4
:10ACE000BFF34F8F144E154CE80506D50120607058
:10ACF000706A0090616868468847A8054FF00007B1
:10AD000005D56770B06A0090616868468847680535
:10AD10000ED5607800280BD06770094901200860C3
:10AD2000582004F013FEF06A009061686846884776
:10AD3000F8BD000000740240F0490300EC2C002034
:10AD400008750240054908B500204870887004481D
:10AD50004068009049686846884708BDEC2C002090
:10AD6000F049030010B503780022072B06D2DFE874
:10AD700003F005040610202930000A7010BD0123DD
:10AD80000B7003898B818388CB81C06888600A74CB
:10AD900010BD02220A7002898A818288CA81C26833
:10ADA0008A60807D062802D00020087410BD012032
:10ADB000FBE703220A70C2888A810289CA81C068BF
:10ADC000886010BD04230B70C0888881CA818A60A6
:10ADD00010BD0520087010BD70B5064D0646002454
:10ADE00055F8241009B130468847641C042CF7D369
:10ADF00070BD00006CE9002030B50446006887B0E3
:10AE00000D46806800281FD018216846FBF755FBC7
:10AE10000195A0680590207910B1012810D107E0B4
:10AE200001208DF8000020690290E068039005E0A1
:10AE300002208DF80000E068000302906069049031
:10AE4000206881686846884707B030BD70B586B015
:10AE500015460C00064619D0112C17D0082C15D019
:10AE600014216846FBF729FBADF80260304601F07B
:10AE7000A7F9ADF804000D2C0AD0862C1CD00720B1
:10AE80008DF800000294684600F04CF806B070BDE2
:10AE900003208DF8000025B12878C00701D00120DB
:10AEA00000E002208DF8080000208DF80C0041F22F
:10AEB0000110ADF80A00E6E706208DF80000E2E791
:10AEC00010B50446408801F07BF9A0800248016873
:10AED0002046BDE8104008472C2C00202DE9F04109
:10AEE00007460024064E074D05E000BF56F8241023
:10AEF00038468847641CE8788442F7DBBDE8F08177
:10AF000088E400204C2C002010B50446408801F055
:10AF100057F9A080024801682046BDE81040084764
:10AF2000804903000149096808470000D44903002B
:10AF30007047000070B586B0044614216846FBF7E0
:10AF4000BCFAA0890125A0F54040ADF804002078A6
:10AF50002A4E062833D2DFE800F0320303032C48E0
:10AF6000A08900F0BDF930B9E08943F6FE71A0F583
:10AF70004040884223D8A07B8DF808002078032821
:10AF80000FD000208DF80900A0680390606850B1D0
:10AF900009208DF8000060680490684605F08AFE7C
:10AFA0000DE00120EEE708208DF800008DF810502C
:10AFB000F3E7A08900F094F908B1E08930B1707826
:10AFC000002801D005F0A6FF06B070BD606820B172
:10AFD0000B208DF800007570DFE70A208DF8000067
:10AFE000BDF8040006F020F8F5E713208DF8000006
:10AFF0004FF6FF70ADF80400CFE700003C2C0020B6
:10B0000038B504460E480078A8B1A4F57F40FF3853
:10B010000FD0684606F020FC78B1052101700121AF
:10B020000171C480684606F025FC06F0D5FC0020BE
:10B0300038BD042038BD022038BD082038BD0000CE
:10B04000902D00200C4808B5007888B1684606F0BD
:10B0500003FC78B106210170684606F00BFC074836
:10B06000017809B10121017306F0B6FC002008BD8A
:10B07000022008BD082008BD902D002030EA0020E5
:10B08000F0B587B014216846FBF717FA2B4C2078EF
:10B0900018B16846FFF7A0FE4EE0201D01F04AFF00
:10B0A000B8BB4FF0102041690004026940694B1C95
:10B0B00001D100FB02F1224800220161A1F54051BB
:10B0C000C160204903F0E6F8002820D11F481C2366
:10B0D0008C221D49006801F093FE05F0DBFB051E84
:10B0E00014D0022812D000270126062D12D005A860
:10B0F00006F0B2FB88B106700C2D18D2DFE805F01F
:10B10000170F170F17161716171113110B2007B06B
:10B11000F0BD11E026706760BBE70820F7E7077114
:10B1200005E0032100E00221017100E0067105A89D
:10B1300006F0A0FB06F050FC0020E8E7902D002070
:10B14000BC2E0020B04B03007CE90020184B03000C
:10B1500038B5040014D0694606F008FDA0B1BDF86A
:10B16000000000EB8001094800EB8100C16849B193
:10B17000A17A39B1C168491EC1600020A07238BDF2
:10B18000052038BD062038BD0A2038BD08EA002059
:10B190001FB501A9684606F0A5FC04B010BD07B5AF
:10B1A00013460A466946002006F09CFC0EBD07B512
:10B1B00013460A460021684606F094FC0EBD20B1F5
:10B1C00019B1006808600020704705207047000032
:10B1D000F8B50D46040018D0BDB1694606F0C6FCAE
:10B1E000A8B1BDF800000B4900EB800001EB800026
:10B1F00001210C30666801F0A0FE2E6060680C3002
:10B2000068600120A0720020F8BD0520F8BD0A206A
:10B21000F8BD000008EA002018B10323002209F05D
:10B2200053B9052070470223002209F04DB912B12D
:10B23000022309F049B9052070470000084910B5FC
:10B240000A69042A0AD0074A096942F82100044819
:10B250000121103001F071FE002010BD0C2010BD46
:10B26000702D00206CE9002038B5044609480D46D1
:10B27000007858B164B16946284609F01FFA0028E1
:10B2800003D1BDF800102180658038BD022038BD93
:10B29000052038BD902D002010B504460E480078DA
:10B2A00098B1A4B12188022913D80C4A01EB81007E
:10B2B00002EB800260885289C31C934209D809F0CE
:10B2C000F1F900202080608010BD022010BD052013
:10B2D00010BD042010BD0000902D002008EA0020C1
:10B2E00043F6FE71A0F54040884201D80120704726
:10B2F0000020704710B504460078182802D1FDF7E9
:10B300009BFF207010BD10B504460078182802D1AC
:10B31000FDF792FF207010BD70B50D460446B0F8E1
:10B320009810D0F894000122FDF730FC00B10570B0
:10B3300004F13C0204F1940104F1540072DF70BD89
:10B3400070B51346002206461546862902D01129FB
:10B3500002D002E0012200E001250D4C73B1A17979
:10B36000FDF78EFF2A4661793046FDF789FF0022FE
:10B37000A1783046FDF784FF002203E0A178FDF7B5
:10B380007FFF2A4661783046BDE87040FDF778BF00
:10B39000642C0020F7B517460E0011D00098002548
:10B3A00060B100242146684601F0A9FD18B1A0B2A1
:10B3B0003946B0476D1C641C142CF3D32846FEBDDF
:10B3C0000020FEBD406806F067BA00000EB517A168
:10B3D0009DF8080020F00F00401C20F0F000103015
:10B3E0008DF808000D2202A87CDF08B1FBF79CFD58
:10B3F00040F2413078DF08B1FBF796FD0020009065
:10B4000001904FF4A071ADF80400ADF800104FF4B6
:10B41000C8704FF40271ADF80600ADF8021068462E
:10B420007ADF002801D0FBF77FFD0EBD48524D5F4B
:10B430005553425F417564696F00000010B508887C
:10B440000C46A0F52061773909D108480321A3886B
:10B450000088628801EB004005A103F0B6FC21469C
:10B46000BDE810400E48FEF72ABA0000182F002051
:10B470004741545420415454204D5455206F6E2060
:10B48000636F6E6E656374696F6E20307825782007
:10B490006368616E67656420746F2025642E000008
:10B4A000B42F002070B508B1012070BD194C0025E3
:10B4B000207B08B1257301E000F0A0F8207808286F
:10B4C00026D2DFE800F02504080C10251420BDE882
:10B4D000704000F021B8BDE8704000F07DB8BDE8D4
:10B4E000704000F05FB8BDE8704000F03BB8608885
:10B4F000084900EB8000283901EB80004068BDE876
:10B50000704005F0A7B96560BDE8704005F0B0B9BE
:10B510000F2070BD30EA00201149F0B48A1C0020D1
:10B520000346A1F128050C18A67A4EB1A37200EBD0
:10B53000800405EB8404E66816B9247C012C0AD04B
:10B54000401C80B20228EED30B704B804B60F0BCE5
:10B5500041F61D5070471080F0BC00F03DB800006F
:10B5600030EA00200C48418801EB8102A0F128015B
:10B5700001EB8201CA6852B105210170074802211E
:10B580008180016800230122054802F0EDBD0422FC
:10B5900002704968F6E7000030EA0020982D00208C
:10B5A000BC2E002038B50A49084803240B684268BD
:10B5B000898803EB810153880470DB1C00201B0485
:10B5C00000909B0B034802F03FFF38BD30EA00209B
:10B5D000982D0020BC2E0020074910B54888091D71
:10B5E00006F014FB18B1BDE81040FFF7DBBFBDE863
:10B5F0001040FFF7B7BF000030EA0020F0B51F4849
:10B600001F490125067802248B88A0F12802082E04
:10B6100019D2DFE806F00418181B222F2F17018912
:10B62000491C01810021418080F80C1001EB81034D
:10B6300012F8233043B100234418491C89B2A37285
:10B640000229F3D30570F0BD0123F5E74268528863
:10B65000D21C1A448A800470F0BD46880D6806EB3F
:10B66000860602EB860256680E60556013818C8058
:10B67000062100E007210170F0BD000030EA002043
:10B68000982D002030B501888488224D85B050293E
:10B6900024D0522902D0542931D103E0204601F0B0
:10B6A000A7F82CE014221C496846FAF7DFFEADF833
:10B6B0000240204600F084FDADF8040000F022F9BD
:10B6C000002269792046FDF7DBFD0022297920461A
:10B6D000FDF7D6FD6846FFF7F3FB10E0017B01297B
:10B6E0000DD1817A01290AD10089A0F524510239AE
:10B6F00005D10121204601F0AFF808F065FA0022DB
:10B700000649E878FDF75EFD05B0BDE8304006F07B
:10B71000B1BD0000242C0020FC480300937E0200F1
:10B7200010B50446007800280FD1608801F060F859
:10B73000608800F081F9002807D004496088012260
:10B740000979BDE81040FDF79BBD10BD242C0020F9
:10B7500010B5124C00202070FDF76EFDA070FDF7B3
:10B760006BFDE070FDF768FD2071FDF765FD607110
:10B77000A17818290FD0E17818290CD0217918293F
:10B7800009D0182807D00121601C05F031FE0120E6
:10B790002070002010BD032010BD0000242C0020CC
:10B7A0007CB50446007808282FD1607A38BB207A0F
:10B7B0004FF6FF7501280DD0072802D0082824D1A4
:10B7C0001EE0A08800F03AFCA8421ED0012101F042
:10B7D00043F81AE0A0886A46012105F083F970B9A0
:10B7E0000198007858B1A08800F028FCA8420CD03D
:10B7F000084901220979FDF743FD06F03BFD04E00D
:10B8000004480021401C05F02EFEBDE87C4008F0F5
:10B81000DBB90000242C002010B504460A4841780A
:10B820002046FDF715FD68B10848002101EB4102F3
:10B8300000EB82025288A24201D1C8B210BD491C5D
:10B840001429F3D3FF2010BD362C002078E200200D
:10B8500070B5094D094E002404EB440005EB80004F
:10B8600071784088FDF7F4FC20B1641C142CF3D3EC
:10B87000FF2070BDE0B270BD78E20020362C0020C1
:10B880002DE9F0418046024601200021FAF7DBFD58
:10B890001A4F05460E467868FBF7D2FB00280CD1FC
:10B8A000174CD4E9062110462A4001EA06031A4340
:10B8B00005D0A843B143C4E90601BDE8F081404684
:10B8C00004F0ACF930B1D4E9040128433143C4E9B0
:10B8D000040105E0D4E90410A943B043C4E904100D
:10B8E000D4E9060128433143C4E90601A168786818
:10B8F000BDE8F0410022FBF75FBB0000004B0300F6
:10B90000282D00201CB5054AD2E90212CDE900120B
:10B910000022694605F00BF91CBD00001449030024
:10B9200003484FF6FF7181800121017000207047AC
:10B93000302C00202DE9FC41804600F041FC002421
:10B9400003250127A0F57F412646FF3908D06A4626
:10B95000082105F0C7F818B90198841D8688056884
:10B9600032462B4621464046B1DF042804D0082841
:10B9700004D00B2808D002E0112000E00020002FA6
:10B9800000D10B20BDE8FC810027A80701D50125C7
:10B99000E6E73443F5D0002426460325E0E72DE909
:10B9A000FC41804600F00CFC0646A0F57F40FF38C5
:10B9B0000ED001252A466D1C0027ADB26B4608212A
:10B9C000304605F0B9F8040006D0072C25D025E054
:10B9D00043F20200BDE8FC81019903230A1D0B60BC
:10B9E0004046891DB2DF040004D00C2C09D0052C80
:10B9F00009D009E032460821104605F013F9044643
:10BA00000CE0012700E000240821304605F0F6F89C
:10BA100000B10324002FCDD100E00C242046D9E74B
:10BA200004488088A0F57F41FF3901D006F02CBC86
:10BA300070470000302C00200EB502A9019100F0E3
:10BA4000BFFB6A46012105F04DF808B100200EBD8C
:10BA5000019800780EBD00002DE9F04107464FF631
:10BA6000FF760A48B3DF10B10320BDE8F081074C30
:10BA700043F20305A41E324661883846AFDFA84270
:10BA8000F3D16088401C6080F5E70000322C002074
:10BA9000428800EB82020C328A4201D902207047B0
:10BAA0008188A1F57F42FF3A03D0008808B10020C9
:10BAB000704701207047884204D20068401C01D0C2
:10BAC000012070470020704710B51249124806F057
:10BAD000A4FB114C81B2283C6069401C60610F4896
